{
  "_format": "hh-sol-artifact-1",
  "contractName": "VoiceNFT",
  "sourceName": "contracts/VoiceNFT.sol",
  "abi": [
    {
      "inputs": [],
      "stateMutability": "nonpayable",
      "type": "constructor"
    },
    {
      "inputs": [
        {
          "internalType": "address",
          "name": "sender",
          "type": "address"
        },
        {
          "internalType": "uint256",
          "name": "tokenId",
          "type": "uint256"
        },
        {
          "internalType": "address",
          "name": "owner",
          "type": "address"
        }
      ],
      "name": "ERC721IncorrectOwner",
      "type": "error"
    },
    {
      "inputs": [
        {
          "internalType": "address",
          "name": "operator",
          "type": "address"
        },
        {
          "internalType": "uint256",
          "name": "tokenId",
          "type": "uint256"
        }
      ],
      "name": "ERC721InsufficientApproval",
      "type": "error"
    },
    {
      "inputs": [
        {
          "internalType": "address",
          "name": "approver",
          "type": "address"
        }
      ],
      "name": "ERC721InvalidApprover",
      "type": "error"
    },
    {
      "inputs": [
        {
          "internalType": "address",
          "name": "operator",
          "type": "address"
        }
      ],
      "name": "ERC721InvalidOperator",
      "type": "error"
    },
    {
      "inputs": [
        {
          "internalType": "address",
          "name": "owner",
          "type": "address"
        }
      ],
      "name": "ERC721InvalidOwner",
      "type": "error"
    },
    {
      "inputs": [
        {
          "internalType": "address",
          "name": "receiver",
          "type": "address"
        }
      ],
      "name": "ERC721InvalidReceiver",
      "type": "error"
    },
    {
      "inputs": [
        {
          "internalType": "address",
          "name": "sender",
          "type": "address"
        }
      ],
      "name": "ERC721InvalidSender",
      "type": "error"
    },
    {
      "inputs": [
        {
          "internalType": "uint256",
          "name": "tokenId",
          "type": "uint256"
        }
      ],
      "name": "ERC721NonexistentToken",
      "type": "error"
    },
    {
      "inputs": [
        {
          "internalType": "address",
          "name": "owner",
          "type": "address"
        }
      ],
      "name": "OwnableInvalidOwner",
      "type": "error"
    },
    {
      "inputs": [
        {
          "internalType": "address",
          "name": "account",
          "type": "address"
        }
      ],
      "name": "OwnableUnauthorizedAccount",
      "type": "error"
    },
    {
      "anonymous": false,
      "inputs": [
        {
          "indexed": true,
          "internalType": "address",
          "name": "owner",
          "type": "address"
        },
        {
          "indexed": true,
          "internalType": "address",
          "name": "approved",
          "type": "address"
        },
        {
          "indexed": true,
          "internalType": "uint256",
          "name": "tokenId",
          "type": "uint256"
        }
      ],
      "name": "Approval",
      "type": "event"
    },
    {
      "anonymous": false,
      "inputs": [
        {
          "indexed": true,
          "internalType": "address",
          "name": "owner",
          "type": "address"
        },
        {
          "indexed": true,
          "internalType": "address",
          "name": "operator",
          "type": "address"
        },
        {
          "indexed": false,
          "internalType": "bool",
          "name": "approved",
          "type": "bool"
        }
      ],
      "name": "ApprovalForAll",
      "type": "event"
    },
    {
      "anonymous": false,
      "inputs": [
        {
          "indexed": false,
          "internalType": "uint256",
          "name": "_fromTokenId",
          "type": "uint256"
        },
        {
          "indexed": false,
          "internalType": "uint256",
          "name": "_toTokenId",
          "type": "uint256"
        }
      ],
      "name": "BatchMetadataUpdate",
      "type": "event"
    },
    {
      "anonymous": false,
      "inputs": [
        {
          "indexed": false,
          "internalType": "uint256",
          "name": "_tokenId",
          "type": "uint256"
        }
      ],
      "name": "MetadataUpdate",
      "type": "event"
    },
    {
      "anonymous": false,
      "inputs": [
        {
          "indexed": true,
          "internalType": "address",
          "name": "previousOwner",
          "type": "address"
        },
        {
          "indexed": true,
          "internalType": "address",
          "name": "newOwner",
          "type": "address"
        }
      ],
      "name": "OwnershipTransferred",
      "type": "event"
    },
    {
      "anonymous": false,
      "inputs": [
        {
          "indexed": true,
          "internalType": "address",
          "name": "from",
          "type": "address"
        },
        {
          "indexed": true,
          "internalType": "address",
          "name": "to",
          "type": "address"
        },
        {
          "indexed": true,
          "internalType": "uint256",
          "name": "tokenId",
          "type": "uint256"
        }
      ],
      "name": "Transfer",
      "type": "event"
    },
    {
      "inputs": [
        {
          "internalType": "address",
          "name": "to",
          "type": "address"
        },
        {
          "internalType": "uint256",
          "name": "tokenId",
          "type": "uint256"
        }
      ],
      "name": "approve",
      "outputs": [],
      "stateMutability": "nonpayable",
      "type": "function"
    },
    {
      "inputs": [
        {
          "internalType": "address",
          "name": "owner",
          "type": "address"
        }
      ],
      "name": "balanceOf",
      "outputs": [
        {
          "internalType": "uint256",
          "name": "",
          "type": "uint256"
        }
      ],
      "stateMutability": "view",
      "type": "function"
    },
    {
      "inputs": [
        {
          "internalType": "uint256",
          "name": "tokenId",
          "type": "uint256"
        }
      ],
      "name": "getApproved",
      "outputs": [
        {
          "internalType": "address",
          "name": "",
          "type": "address"
        }
      ],
      "stateMutability": "view",
      "type": "function"
    },
    {
      "inputs": [
        {
          "internalType": "uint256",
          "name": "tokenId",
          "type": "uint256"
        }
      ],
      "name": "getVoiceData",
      "outputs": [
        {
          "internalType": "string",
          "name": "",
          "type": "string"
        },
        {
          "internalType": "string",
          "name": "",
          "type": "string"
        }
      ],
      "stateMutability": "view",
      "type": "function"
    },
    {
      "inputs": [
        {
          "internalType": "address",
          "name": "owner",
          "type": "address"
        },
        {
          "internalType": "address",
          "name": "operator",
          "type": "address"
        }
      ],
      "name": "isApprovedForAll",
      "outputs": [
        {
          "internalType": "bool",
          "name": "",
          "type": "bool"
        }
      ],
      "stateMutability": "view",
      "type": "function"
    },
    {
      "inputs": [
        {
          "internalType": "address",
          "name": "to",
          "type": "address"
        },
        {
          "internalType": "string",
          "name": "voiceId",
          "type": "string"
        },
        {
          "internalType": "string",
          "name": "embeddingHash",
          "type": "string"
        },
        {
          "internalType": "string",
          "name": "uri",
          "type": "string"
        }
      ],
      "name": "mint",
      "outputs": [
        {
          "internalType": "uint256",
          "name": "",
          "type": "uint256"
        }
      ],
      "stateMutability": "nonpayable",
      "type": "function"
    },
    {
      "inputs": [],
      "name": "name",
      "outputs": [
        {
          "internalType": "string",
          "name": "",
          "type": "string"
        }
      ],
      "stateMutability": "view",
      "type": "function"
    },
    {
      "inputs": [],
      "name": "owner",
      "outputs": [
        {
          "internalType": "address",
          "name": "",
          "type": "address"
        }
      ],
      "stateMutability": "view",
      "type": "function"
    },
    {
      "inputs": [
        {
          "internalType": "uint256",
          "name": "tokenId",
          "type": "uint256"
        }
      ],
      "name": "ownerOf",
      "outputs": [
        {
          "internalType": "address",
          "name": "",
          "type": "address"
        }
      ],
      "stateMutability": "view",
      "type": "function"
    },
    {
      "inputs": [],
      "name": "renounceOwnership",
      "outputs": [],
      "stateMutability": "nonpayable",
      "type": "function"
    },
    {
      "inputs": [
        {
          "internalType": "address",
          "name": "from",
          "type": "address"
        },
        {
          "internalType": "address",
          "name": "to",
          "type": "address"
        },
        {
          "internalType": "uint256",
          "name": "tokenId",
          "type": "uint256"
        }
      ],
      "name": "safeTransferFrom",
      "outputs": [],
      "stateMutability": "nonpayable",
      "type": "function"
    },
    {
      "inputs": [
        {
          "internalType": "address",
          "name": "from",
          "type": "address"
        },
        {
          "internalType": "address",
          "name": "to",
          "type": "address"
        },
        {
          "internalType": "uint256",
          "name": "tokenId",
          "type": "uint256"
        },
        {
          "internalType": "bytes",
          "name": "data",
          "type": "bytes"
        }
      ],
      "name": "safeTransferFrom",
      "outputs": [],
      "stateMutability": "nonpayable",
      "type": "function"
    },
    {
      "inputs": [
        {
          "internalType": "address",
          "name": "operator",
          "type": "address"
        },
        {
          "internalType": "bool",
          "name": "approved",
          "type": "bool"
        }
      ],
      "name": "setApprovalForAll",
      "outputs": [],
      "stateMutability": "nonpayable",
      "type": "function"
    },
    {
      "inputs": [
        {
          "internalType": "bytes4",
          "name": "interfaceId",
          "type": "bytes4"
        }
      ],
      "name": "supportsInterface",
      "outputs": [
        {
          "internalType": "bool",
          "name": "",
          "type": "bool"
        }
      ],
      "stateMutability": "view",
      "type": "function"
    },
    {
      "inputs": [],
      "name": "symbol",
      "outputs": [
        {
          "internalType": "string",
          "name": "",
          "type": "string"
        }
      ],
      "stateMutability": "view",
      "type": "function"
    },
    {
      "inputs": [
        {
          "internalType": "uint256",
          "name": "tokenId",
          "type": "uint256"
        }
      ],
      "name": "tokenURI",
      "outputs": [
        {
          "internalType": "string",
          "name": "",
          "type": "string"
        }
      ],
      "stateMutability": "view",
      "type": "function"
    },
    {
      "inputs": [
        {
          "internalType": "address",
          "name": "from",
          "type": "address"
        },
        {
          "internalType": "address",
          "name": "to",
          "type": "address"
        },
        {
          "internalType": "uint256",
          "name": "tokenId",
          "type": "uint256"
        }
      ],
      "name": "transferFrom",
      "outputs": [],
      "stateMutability": "nonpayable",
      "type": "function"
    },
    {
      "inputs": [
        {
          "internalType": "address",
          "name": "newOwner",
          "type": "address"
        }
      ],
      "name": "transferOwnership",
      "outputs": [],
      "stateMutability": "nonpayable",
      "type": "function"
    },
    {
      "inputs": [
        {
          "internalType": "uint256",
          "name": "",
          "type": "uint256"
        }
      ],
      "name": "voiceData",
      "outputs": [
        {
          "internalType": "string",
          "name": "voiceId",
          "type": "string"
        },
        {
          "internalType": "string",
          "name": "embeddingHash",
          "type": "string"
        }
      ],
      "stateMutability": "view",
      "type": "function"
    }
  ],
  "bytecode": "0x60806040523480156200001157600080fd5b50336040518060400160405280600881526020017f566f6963654e46540000000000000000000000000000000000000000000000008152506040518060400160405280600481526020017f564e465400000000000000000000000000000000000000000000000000000000815250816000908162000090919062000472565b508060019081620000a2919062000472565b505050600073ffffffffffffffffffffffffffffffffffffffff168173ffffffffffffffffffffffffffffffffffffffff16036200011a5760006040517f1e4fbdf70000000000000000000000000000000000000000000000000000000081526004016200011191906200059e565b60405180910390fd5b6200012b816200013260201b60201c565b50620005bb565b6000600760009054906101000a900473ffffffffffffffffffffffffffffffffffffffff16905081600760006101000a81548173ffffffffffffffffffffffffffffffffffffffff021916908373ffffffffffffffffffffffffffffffffffffffff1602179055508173ffffffffffffffffffffffffffffffffffffffff168173ffffffffffffffffffffffffffffffffffffffff167f8be0079c531659141344cd1fd0a4f28419497f9722a3daafe3b4186f6b6457e060405160405180910390a35050565b600081519050919050565b7f4e487b7100000000000000000000000000000000000000000000000000000000600052604160045260246000fd5b7f4e487b7100000000000000000000000000000000000000000000000000000000600052602260045260246000fd5b600060028204905060018216806200027a57607f821691505b60208210810362000290576200028f62000232565b5b50919050565b60008190508160005260206000209050919050565b60006020601f8301049050919050565b600082821b905092915050565b600060088302620002fa7fffffffffffffffffffffffffffffffffffffffffffffffffffffffffffffffff82620002bb565b620003068683620002bb565b95508019841693508086168417925050509392505050565b6000819050919050565b6000819050919050565b6000620003536200034d62000347846200031e565b62000328565b6200031e565b9050919050565b6000819050919050565b6200036f8362000332565b620003876200037e826200035a565b848454620002c8565b825550505050565b600090565b6200039e6200038f565b620003ab81848462000364565b505050565b5b81811015620003d357620003c760008262000394565b600181019050620003b1565b5050565b601f8211156200042257620003ec8162000296565b620003f784620002ab565b8101602085101562000407578190505b6200041f6200041685620002ab565b830182620003b0565b50505b505050565b600082821c905092915050565b6000620004476000198460080262000427565b1980831691505092915050565b600062000462838362000434565b9150826002028217905092915050565b6200047d82620001f8565b67ffffffffffffffff81111562000499576200049862000203565b5b620004a5825462000261565b620004b2828285620003d7565b600060209050601f831160018114620004ea5760008415620004d5578287015190505b620004e1858262000454565b86555062000551565b601f198416620004fa8662000296565b60005b828110156200052457848901518255600182019150602085019450602081019050620004fd565b8683101562000544578489015162000540601f89168262000434565b8355505b6001600288020188555050505b505050505050565b600073ffffffffffffffffffffffffffffffffffffffff82169050919050565b6000620005868262000559565b9050919050565b620005988162000579565b82525050565b6000602082019050620005b560008301846200058d565b92915050565b612b5780620005cb6000396000f3fe608060405234801561001057600080fd5b50600436106101215760003560e01c806370a08231116100ad578063a22cb46511610071578063a22cb46514610330578063b88d4fde1461034c578063c87b56dd14610368578063e985e9c514610398578063f2fde38b146103c857610121565b806370a0823114610289578063715018a6146102b95780638a863108146102c35780638da5cb5b146102f457806395d89b411461031257610121565b806323b872dd116100f457806323b872dd146101c05780632a4c9cdd146101dc57806342842e0e1461020d5780634a0706be146102295780636352211e1461025957610121565b806301ffc9a71461012657806306fdde0314610156578063081812fc14610174578063095ea7b3146101a4575b600080fd5b610140600480360381019061013b9190611ead565b6103e4565b60405161014d9190611ef5565b60405180910390f35b61015e610445565b60405161016b9190611fa0565b60405180910390f35b61018e60048036038101906101899190611ff8565b6104d7565b60405161019b9190612066565b60405180910390f35b6101be60048036038101906101b991906120ad565b6104f3565b005b6101da60048036038101906101d591906120ed565b610509565b005b6101f660048036038101906101f19190611ff8565b61060b565b604051610204929190612140565b60405180910390f35b610227600480360381019061022291906120ed565b6107e5565b005b610243600480360381019061023e91906122ac565b610805565b6040516102509190612376565b60405180910390f35b610273600480360381019061026e9190611ff8565b610898565b6040516102809190612066565b60405180910390f35b6102a3600480360381019061029e9190612391565b6108aa565b6040516102b09190612376565b60405180910390f35b6102c1610964565b005b6102dd60048036038101906102d89190611ff8565b610978565b6040516102eb929190612140565b60405180910390f35b6102fc610aac565b6040516103099190612066565b60405180910390f35b61031a610ad6565b6040516103279190611fa0565b60405180910390f35b61034a600480360381019061034591906123ea565b610b68565b005b610366600480360381019061036191906124cb565b610b7e565b005b610382600480360381019061037d9190611ff8565b610ba3565b60405161038f9190611fa0565b60405180910390f35b6103b260048036038101906103ad919061254e565b610cb6565b6040516103bf9190611ef5565b60405180910390f35b6103e260048036038101906103dd9190612391565b610d4a565b005b6000634906490660e01b7bffffffffffffffffffffffffffffffffffffffffffffffffffffffff1916827bffffffffffffffffffffffffffffffffffffffffffffffffffffffff1916148061043e575061043d82610dd0565b5b9050919050565b606060008054610454906125bd565b80601f0160208091040260200160405190810160405280929190818152602001828054610480906125bd565b80156104cd5780601f106104a2576101008083540402835291602001916104cd565b820191906000526020600020905b8154815290600101906020018083116104b057829003601f168201915b5050505050905090565b60006104e282610eb2565b506104ec82610f3a565b9050919050565b6105058282610500610f77565b610f7f565b5050565b600073ffffffffffffffffffffffffffffffffffffffff168273ffffffffffffffffffffffffffffffffffffffff160361057b5760006040517f64a0ae920000000000000000000000000000000000000000000000000000000081526004016105729190612066565b60405180910390fd5b600061058f838361058a610f77565b610f91565b90508373ffffffffffffffffffffffffffffffffffffffff168173ffffffffffffffffffffffffffffffffffffffff1614610605578382826040517f64283d7b0000000000000000000000000000000000000000000000000000000081526004016105fc939291906125ee565b60405180910390fd5b50505050565b606080600061061984610898565b9050600073ffffffffffffffffffffffffffffffffffffffff168173ffffffffffffffffffffffffffffffffffffffff160361068a576040517f08c379a000000000000000000000000000000000000000000000000000000000815260040161068190612671565b60405180910390fd5b6000600960008681526020019081526020016000206040518060400160405290816000820180546106ba906125bd565b80601f01602080910402602001604051908101604052809291908181526020018280546106e6906125bd565b80156107335780601f1061070857610100808354040283529160200191610733565b820191906000526020600020905b81548152906001019060200180831161071657829003601f168201915b5050505050815260200160018201805461074c906125bd565b80601f0160208091040260200160405190810160405280929190818152602001828054610778906125bd565b80156107c55780601f1061079a576101008083540402835291602001916107c5565b820191906000526020600020905b8154815290600101906020018083116107a857829003601f168201915b505050505081525050905080600001518160200151935093505050915091565b61080083838360405180602001604052806000815250610b7e565b505050565b6000806008600081548092919061081b906126c0565b91905055905061082b86826111ab565b61083581846111c9565b60405180604001604052808681526020018581525060096000838152602001908152602001600020600082015181600001908161087291906128b4565b50602082015181600101908161088891906128b4565b5090505080915050949350505050565b60006108a382610eb2565b9050919050565b60008073ffffffffffffffffffffffffffffffffffffffff168273ffffffffffffffffffffffffffffffffffffffff160361091d5760006040517f89c62b640000000000000000000000000000000000000000000000000000000081526004016109149190612066565b60405180910390fd5b600360008373ffffffffffffffffffffffffffffffffffffffff1673ffffffffffffffffffffffffffffffffffffffff168152602001908152602001600020549050919050565b61096c611225565b61097660006112ac565b565b600960205280600052604060002060009150905080600001805461099b906125bd565b80601f01602080910402602001604051908101604052809291908181526020018280546109c7906125bd565b8015610a145780601f106109e957610100808354040283529160200191610a14565b820191906000526020600020905b8154815290600101906020018083116109f757829003601f168201915b505050505090806001018054610a29906125bd565b80601f0160208091040260200160405190810160405280929190818152602001828054610a55906125bd565b8015610aa25780601f10610a7757610100808354040283529160200191610aa2565b820191906000526020600020905b815481529060010190602001808311610a8557829003601f168201915b5050505050905082565b6000600760009054906101000a900473ffffffffffffffffffffffffffffffffffffffff16905090565b606060018054610ae5906125bd565b80601f0160208091040260200160405190810160405280929190818152602001828054610b11906125bd565b8015610b5e5780601f10610b3357610100808354040283529160200191610b5e565b820191906000526020600020905b815481529060010190602001808311610b4157829003601f168201915b5050505050905090565b610b7a610b73610f77565b8383611372565b5050565b610b89848484610509565b610b9d610b94610f77565b858585856114e1565b50505050565b6060610bae82610eb2565b506000600660008481526020019081526020016000208054610bcf906125bd565b80601f0160208091040260200160405190810160405280929190818152602001828054610bfb906125bd565b8015610c485780601f10610c1d57610100808354040283529160200191610c48565b820191906000526020600020905b815481529060010190602001808311610c2b57829003601f168201915b505050505090506000610c59611692565b90506000815103610c6e578192505050610cb1565b600082511115610ca3578082604051602001610c8b9291906129c2565b60405160208183030381529060405292505050610cb1565b610cac846116a9565b925050505b919050565b6000600560008473ffffffffffffffffffffffffffffffffffffffff1673ffffffffffffffffffffffffffffffffffffffff16815260200190815260200160002060008373ffffffffffffffffffffffffffffffffffffffff1673ffffffffffffffffffffffffffffffffffffffff16815260200190815260200160002060009054906101000a900460ff16905092915050565b610d52611225565b600073ffffffffffffffffffffffffffffffffffffffff168173ffffffffffffffffffffffffffffffffffffffff1603610dc45760006040517f1e4fbdf7000000000000000000000000000000000000000000000000000000008152600401610dbb9190612066565b60405180910390fd5b610dcd816112ac565b50565b60007f80ac58cd000000000000000000000000000000000000000000000000000000007bffffffffffffffffffffffffffffffffffffffffffffffffffffffff1916827bffffffffffffffffffffffffffffffffffffffffffffffffffffffff19161480610e9b57507f5b5e139f000000000000000000000000000000000000000000000000000000007bffffffffffffffffffffffffffffffffffffffffffffffffffffffff1916827bffffffffffffffffffffffffffffffffffffffffffffffffffffffff1916145b80610eab5750610eaa82611712565b5b9050919050565b600080610ebe8361177c565b9050600073ffffffffffffffffffffffffffffffffffffffff168173ffffffffffffffffffffffffffffffffffffffff1603610f3157826040517f7e273289000000000000000000000000000000000000000000000000000000008152600401610f289190612376565b60405180910390fd5b80915050919050565b60006004600083815260200190815260200160002060009054906101000a900473ffffffffffffffffffffffffffffffffffffffff169050919050565b600033905090565b610f8c83838360016117b9565b505050565b600080610f9d8461177c565b9050600073ffffffffffffffffffffffffffffffffffffffff168373ffffffffffffffffffffffffffffffffffffffff1614610fdf57610fde81848661197e565b5b600073ffffffffffffffffffffffffffffffffffffffff168173ffffffffffffffffffffffffffffffffffffffff1614611070576110216000856000806117b9565b6001600360008373ffffffffffffffffffffffffffffffffffffffff1673ffffffffffffffffffffffffffffffffffffffff168152602001908152602001600020600082825403925050819055505b600073ffffffffffffffffffffffffffffffffffffffff168573ffffffffffffffffffffffffffffffffffffffff16146110f3576001600360008773ffffffffffffffffffffffffffffffffffffffff1673ffffffffffffffffffffffffffffffffffffffff168152602001908152602001600020600082825401925050819055505b846002600086815260200190815260200160002060006101000a81548173ffffffffffffffffffffffffffffffffffffffff021916908373ffffffffffffffffffffffffffffffffffffffff160217905550838573ffffffffffffffffffffffffffffffffffffffff168273ffffffffffffffffffffffffffffffffffffffff167fddf252ad1be2c89b69c2b068fc378daa952ba7f163c4a11628f55a4df523b3ef60405160405180910390a4809150509392505050565b6111c5828260405180602001604052806000815250611a42565b5050565b806006600084815260200190815260200160002090816111e991906128b4565b507ff8e1a15aba9398e019f0b49df1a4fde98ee17ae345cb5f6b5e2c27f5033e8ce7826040516112199190612376565b60405180910390a15050565b61122d610f77565b73ffffffffffffffffffffffffffffffffffffffff1661124b610aac565b73ffffffffffffffffffffffffffffffffffffffff16146112aa5761126e610f77565b6040517f118cdaa70000000000000000000000000000000000000000000000000000000081526004016112a19190612066565b60405180910390fd5b565b6000600760009054906101000a900473ffffffffffffffffffffffffffffffffffffffff16905081600760006101000a81548173ffffffffffffffffffffffffffffffffffffffff021916908373ffffffffffffffffffffffffffffffffffffffff1602179055508173ffffffffffffffffffffffffffffffffffffffff168173ffffffffffffffffffffffffffffffffffffffff167f8be0079c531659141344cd1fd0a4f28419497f9722a3daafe3b4186f6b6457e060405160405180910390a35050565b600073ffffffffffffffffffffffffffffffffffffffff168273ffffffffffffffffffffffffffffffffffffffff16036113e357816040517f5b08ba180000000000000000000000000000000000000000000000000000000081526004016113da9190612066565b60405180910390fd5b80600560008573ffffffffffffffffffffffffffffffffffffffff1673ffffffffffffffffffffffffffffffffffffffff16815260200190815260200160002060008473ffffffffffffffffffffffffffffffffffffffff1673ffffffffffffffffffffffffffffffffffffffff16815260200190815260200160002060006101000a81548160ff0219169083151502179055508173ffffffffffffffffffffffffffffffffffffffff168373ffffffffffffffffffffffffffffffffffffffff167f17307eab39ab6107e8899845ad3d59bd9653f200f220920489ca2b5937696c31836040516114d49190611ef5565b60405180910390a3505050565b60008373ffffffffffffffffffffffffffffffffffffffff163b111561168b578273ffffffffffffffffffffffffffffffffffffffff1663150b7a02868685856040518563ffffffff1660e01b81526004016115409493929190612a3b565b6020604051808303816000875af192505050801561157c57506040513d601f19601f820116820180604052508101906115799190612a9c565b60015b611600573d80600081146115ac576040519150601f19603f3d011682016040523d82523d6000602084013e6115b1565b606091505b5060008151036115f857836040517f64a0ae920000000000000000000000000000000000000000000000000000000081526004016115ef9190612066565b60405180910390fd5b805160208201fd5b63150b7a0260e01b7bffffffffffffffffffffffffffffffffffffffffffffffffffffffff1916817bffffffffffffffffffffffffffffffffffffffffffffffffffffffff19161461168957836040517f64a0ae920000000000000000000000000000000000000000000000000000000081526004016116809190612066565b60405180910390fd5b505b5050505050565b606060405180602001604052806000815250905090565b60606116b482610eb2565b5060006116bf611692565b905060008151116116df576040518060200160405280600081525061170a565b806116e984611a66565b6040516020016116fa9291906129c2565b6040516020818303038152906040525b915050919050565b60007f01ffc9a7000000000000000000000000000000000000000000000000000000007bffffffffffffffffffffffffffffffffffffffffffffffffffffffff1916827bffffffffffffffffffffffffffffffffffffffffffffffffffffffff1916149050919050565b60006002600083815260200190815260200160002060009054906101000a900473ffffffffffffffffffffffffffffffffffffffff169050919050565b80806117f25750600073ffffffffffffffffffffffffffffffffffffffff168273ffffffffffffffffffffffffffffffffffffffff1614155b1561192657600061180284610eb2565b9050600073ffffffffffffffffffffffffffffffffffffffff168373ffffffffffffffffffffffffffffffffffffffff161415801561186d57508273ffffffffffffffffffffffffffffffffffffffff168173ffffffffffffffffffffffffffffffffffffffff1614155b8015611880575061187e8184610cb6565b155b156118c257826040517fa9fbf51f0000000000000000000000000000000000000000000000000000000081526004016118b99190612066565b60405180910390fd5b811561192457838573ffffffffffffffffffffffffffffffffffffffff168273ffffffffffffffffffffffffffffffffffffffff167f8c5be1e5ebec7d5bd14f71427d1e84f3dd0314c0f7b2291e5b200ac8c7c3b92560405160405180910390a45b505b836004600085815260200190815260200160002060006101000a81548173ffffffffffffffffffffffffffffffffffffffff021916908373ffffffffffffffffffffffffffffffffffffffff16021790555050505050565b611989838383611b34565b611a3d57600073ffffffffffffffffffffffffffffffffffffffff168373ffffffffffffffffffffffffffffffffffffffff16036119fe57806040517f7e2732890000000000000000000000000000000000000000000000000000000081526004016119f59190612376565b60405180910390fd5b81816040517f177e802f000000000000000000000000000000000000000000000000000000008152600401611a34929190612ac9565b60405180910390fd5b505050565b611a4c8383611bf5565b611a61611a57610f77565b60008585856114e1565b505050565b606060006001611a7584611cee565b01905060008167ffffffffffffffff811115611a9457611a93612181565b5b6040519080825280601f01601f191660200182016040528015611ac65781602001600182028036833780820191505090505b509050600082602083010190505b600115611b29578080600190039150507f3031323334353637383961626364656600000000000000000000000000000000600a86061a8153600a8581611b1d57611b1c612af2565b5b04945060008503611ad4575b819350505050919050565b60008073ffffffffffffffffffffffffffffffffffffffff168373ffffffffffffffffffffffffffffffffffffffff1614158015611bec57508273ffffffffffffffffffffffffffffffffffffffff168473ffffffffffffffffffffffffffffffffffffffff161480611bad5750611bac8484610cb6565b5b80611beb57508273ffffffffffffffffffffffffffffffffffffffff16611bd383610f3a565b73ffffffffffffffffffffffffffffffffffffffff16145b5b90509392505050565b600073ffffffffffffffffffffffffffffffffffffffff168273ffffffffffffffffffffffffffffffffffffffff1603611c675760006040517f64a0ae92000000000000000000000000000000000000000000000000000000008152600401611c5e9190612066565b60405180910390fd5b6000611c7583836000610f91565b9050600073ffffffffffffffffffffffffffffffffffffffff168173ffffffffffffffffffffffffffffffffffffffff1614611ce95760006040517f73c6ac6e000000000000000000000000000000000000000000000000000000008152600401611ce09190612066565b60405180910390fd5b505050565b600080600090507a184f03e93ff9f4daa797ed6e38ed64bf6a1f0100000000000000008310611d4c577a184f03e93ff9f4daa797ed6e38ed64bf6a1f0100000000000000008381611d4257611d41612af2565b5b0492506040810190505b6d04ee2d6d415b85acef81000000008310611d89576d04ee2d6d415b85acef81000000008381611d7f57611d7e612af2565b5b0492506020810190505b662386f26fc100008310611db857662386f26fc100008381611dae57611dad612af2565b5b0492506010810190505b6305f5e1008310611de1576305f5e1008381611dd757611dd6612af2565b5b0492506008810190505b6127108310611e06576127108381611dfc57611dfb612af2565b5b0492506004810190505b60648310611e295760648381611e1f57611e1e612af2565b5b0492506002810190505b600a8310611e38576001810190505b80915050919050565b6000604051905090565b600080fd5b600080fd5b60007fffffffff0000000000000000000000000000000000000000000000000000000082169050919050565b611e8a81611e55565b8114611e9557600080fd5b50565b600081359050611ea781611e81565b92915050565b600060208284031215611ec357611ec2611e4b565b5b6000611ed184828501611e98565b91505092915050565b60008115159050919050565b611eef81611eda565b82525050565b6000602082019050611f0a6000830184611ee6565b92915050565b600081519050919050565b600082825260208201905092915050565b60005b83811015611f4a578082015181840152602081019050611f2f565b60008484015250505050565b6000601f19601f8301169050919050565b6000611f7282611f10565b611f7c8185611f1b565b9350611f8c818560208601611f2c565b611f9581611f56565b840191505092915050565b60006020820190508181036000830152611fba8184611f67565b905092915050565b6000819050919050565b611fd581611fc2565b8114611fe057600080fd5b50565b600081359050611ff281611fcc565b92915050565b60006020828403121561200e5761200d611e4b565b5b600061201c84828501611fe3565b91505092915050565b600073ffffffffffffffffffffffffffffffffffffffff82169050919050565b600061205082612025565b9050919050565b61206081612045565b82525050565b600060208201905061207b6000830184612057565b92915050565b61208a81612045565b811461209557600080fd5b50565b6000813590506120a781612081565b92915050565b600080604083850312156120c4576120c3611e4b565b5b60006120d285828601612098565b92505060206120e385828601611fe3565b9150509250929050565b60008060006060848603121561210657612105611e4b565b5b600061211486828701612098565b935050602061212586828701612098565b925050604061213686828701611fe3565b9150509250925092565b6000604082019050818103600083015261215a8185611f67565b9050818103602083015261216e8184611f67565b90509392505050565b600080fd5b600080fd5b7f4e487b7100000000000000000000000000000000000000000000000000000000600052604160045260246000fd5b6121b982611f56565b810181811067ffffffffffffffff821117156121d8576121d7612181565b5b80604052505050565b60006121eb611e41565b90506121f782826121b0565b919050565b600067ffffffffffffffff82111561221757612216612181565b5b61222082611f56565b9050602081019050919050565b82818337600083830152505050565b600061224f61224a846121fc565b6121e1565b90508281526020810184848401111561226b5761226a61217c565b5b61227684828561222d565b509392505050565b600082601f83011261229357612292612177565b5b81356122a384826020860161223c565b91505092915050565b600080600080608085870312156122c6576122c5611e4b565b5b60006122d487828801612098565b945050602085013567ffffffffffffffff8111156122f5576122f4611e50565b5b6123018782880161227e565b935050604085013567ffffffffffffffff81111561232257612321611e50565b5b61232e8782880161227e565b925050606085013567ffffffffffffffff81111561234f5761234e611e50565b5b61235b8782880161227e565b91505092959194509250565b61237081611fc2565b82525050565b600060208201905061238b6000830184612367565b92915050565b6000602082840312156123a7576123a6611e4b565b5b60006123b584828501612098565b91505092915050565b6123c781611eda565b81146123d257600080fd5b50565b6000813590506123e4816123be565b92915050565b6000806040838503121561240157612400611e4b565b5b600061240f85828601612098565b9250506020612420858286016123d5565b9150509250929050565b600067ffffffffffffffff82111561244557612444612181565b5b61244e82611f56565b9050602081019050919050565b600061246e6124698461242a565b6121e1565b90508281526020810184848401111561248a5761248961217c565b5b61249584828561222d565b509392505050565b600082601f8301126124b2576124b1612177565b5b81356124c284826020860161245b565b91505092915050565b600080600080608085870312156124e5576124e4611e4b565b5b60006124f387828801612098565b945050602061250487828801612098565b935050604061251587828801611fe3565b925050606085013567ffffffffffffffff81111561253657612535611e50565b5b6125428782880161249d565b91505092959194509250565b6000806040838503121561256557612564611e4b565b5b600061257385828601612098565b925050602061258485828601612098565b9150509250929050565b7f4e487b7100000000000000000000000000000000000000000000000000000000600052602260045260246000fd5b600060028204905060018216806125d557607f821691505b6020821081036125e8576125e761258e565b5b50919050565b60006060820190506126036000830186612057565b6126106020830185612367565b61261d6040830184612057565b949350505050565b7f546f6b656e20646f6573206e6f74206578697374000000000000000000000000600082015250565b600061265b601483611f1b565b915061266682612625565b602082019050919050565b6000602082019050818103600083015261268a8161264e565b9050919050565b7f4e487b7100000000000000000000000000000000000000000000000000000000600052601160045260246000fd5b60006126cb82611fc2565b91507fffffffffffffffffffffffffffffffffffffffffffffffffffffffffffffffff82036126fd576126fc612691565b5b600182019050919050565b60008190508160005260206000209050919050565b60006020601f8301049050919050565b600082821b905092915050565b60006008830261276a7fffffffffffffffffffffffffffffffffffffffffffffffffffffffffffffffff8261272d565b612774868361272d565b95508019841693508086168417925050509392505050565b6000819050919050565b60006127b16127ac6127a784611fc2565b61278c565b611fc2565b9050919050565b6000819050919050565b6127cb83612796565b6127df6127d7826127b8565b84845461273a565b825550505050565b600090565b6127f46127e7565b6127ff8184846127c2565b505050565b5b81811015612823576128186000826127ec565b600181019050612805565b5050565b601f8211156128685761283981612708565b6128428461271d565b81016020851015612851578190505b61286561285d8561271d565b830182612804565b50505b505050565b600082821c905092915050565b600061288b6000198460080261286d565b1980831691505092915050565b60006128a4838361287a565b9150826002028217905092915050565b6128bd82611f10565b67ffffffffffffffff8111156128d6576128d5612181565b5b6128e082546125bd565b6128eb828285612827565b600060209050601f83116001811461291e576000841561290c578287015190505b6129168582612898565b86555061297e565b601f19841661292c86612708565b60005b828110156129545784890151825560018201915060208501945060208101905061292f565b86831015612971578489015161296d601f89168261287a565b8355505b6001600288020188555050505b505050505050565b600081905092915050565b600061299c82611f10565b6129a68185612986565b93506129b6818560208601611f2c565b80840191505092915050565b60006129ce8285612991565b91506129da8284612991565b91508190509392505050565b600081519050919050565b600082825260208201905092915050565b6000612a0d826129e6565b612a1781856129f1565b9350612a27818560208601611f2c565b612a3081611f56565b840191505092915050565b6000608082019050612a506000830187612057565b612a5d6020830186612057565b612a6a6040830185612367565b8181036060830152612a7c8184612a02565b905095945050505050565b600081519050612a9681611e81565b92915050565b600060208284031215612ab257612ab1611e4b565b5b6000612ac084828501612a87565b91505092915050565b6000604082019050612ade6000830185612057565b612aeb6020830184612367565b9392505050565b7f4e487b7100000000000000000000000000000000000000000000000000000000600052601260045260246000fdfea264697066735822122085fcbf45765a761890c3a6699ce60dda32ddc322a594aafc10eb0937b726659764736f6c63430008140033",
  "linkReferences": {},
  "deployedLinkReferences": {}
}